:020000040000FA
:100000000C9435000C945D000C945D000C945D0024
:100010000C945D000C945D000C945D000C945D00EC
:100020000C945D000C945D000C945D000C945D00DC
:100030000C945D000C945D000C945D000C945D00CC
:100040000C9491010C945D000C9401020C94DB0162
:100050000C945D000C945D000C945D000C945D00AC
:100060000C945D000C945D00760311241FBECFEF4D
:10007000D8E0DEBFCDBF25E0AAE0B3E001C01D920D
:10008000A43AB207E1F713E0A0E0B1E0E6E5F7E05B
:1000900002C005900D92AA30B107D9F710E0C5E370
:1000A000D0E004C02197FE010E94A303C433D1070E
:1000B000C9F70E9433020C94A9030C9400003FB7C7
:1000C000F8948091A0059091A105A091A205B0910E
:1000D000A30526B5A89B05C02F3F19F00196A11DC9
:1000E000B11D3FBFBA2FA92F982F8827BC01CD0182
:1000F000620F711D811D911D42E0660F771F881FE1
:10010000991F4A95D1F70895AF92BF92CF92DF928F
:10011000EF92FF920F931F93CF93DF936C017B01BC
:100120008B01040F151FEB015E01AE18BF08C0174D
:10013000D10759F06991D601ED91FC910190F081C0
:10014000E02DC6010995892B79F7C501DF91CF9183
:100150001F910F91FF90EF90DF90CF90BF90AF90E5
:100160000895FC01538D448D252F30E0842F90E0BD
:10017000821B930B541710F0CF96089501970895A2
:10018000FC01918D828D981761F0A28DAE0FBF2F6B
:10019000B11D5D968C91928D9F5F9F73928F90E0C1
:1001A00008958FEF9FEF0895FC01918D828D981730
:1001B00031F0828DE80FF11D858D90E008958FEF6D
:1001C0009FEF0895FC01918D228D892F90E0805C36
:1001D0009F4F821B91098F73992708958AE093E0BE
:1001E0000E94E20021E0892B09F420E0822F08958B
:1001F00080E090E0892B29F00E94EE0081110C94A0
:1002000000000895FC01A48DA80FB92FB11DA35AB9
:10021000BF4F2C91848D90E001968F739927848F26
:10022000A689B7892C93A089B1898C918370806449
:100230008C93938D848D981306C00288F389E02DEA
:1002400080818F7D80830895EF92FF920F931F939B
:10025000CF93DF93EC0181E0888F9B8D8C8D981379
:100260001AC0E889F989808185FF15C09FB7F89485
:10027000EE89FF896083E889F989808183708064D1
:1002800080839FBF81E090E0DF91CF911F910F911C
:10029000FF90EF900895F62E0B8D10E00F5F1F4F2B
:1002A0000F731127E02E8C8D8E110CC00FB607FC3A
:1002B000FACFE889F989808185FFF5CFCE010E94C8
:1002C0000201F1CFEB8DEC0FFD2FF11DE35AFF4F33
:1002D000F0829FB7F8940B8FEA89FB898081806256
:1002E000CFCFCF93DF93EC01888D8823B9F0AA8913
:1002F000BB89E889F9898C9185FD03C0808186FDE1
:100300000DC00FB607FCF7CF8C9185FFF2CF80812F
:1003100085FFEDCFCE010E940201E9CFDF91CF91A1
:1003200008951F920F920FB60F9211242F933F93AF
:100330008F939F93AF93BF9380919C0590919D0560
:10034000A0919E05B0919F0530919B0523E0230F5E
:100350002D3758F50196A11DB11D20939B05809363
:100360009C0590939D05A0939E05B0939F05809159
:10037000A0059091A105A091A205B091A3050196B9
:10038000A11DB11D8093A0059093A105A093A20586
:10039000B093A305BF91AF919F918F913F912F9102
:1003A0000F900FBE0F901F90189526E8230F02960E
:1003B000A11DB11DD2CF1F920F920FB60F92112423
:1003C0002F933F934F935F936F937F938F939F935D
:1003D000AF93BF93EF93FF938AE093E00E940201F3
:1003E000FF91EF91BF91AF919F918F917F916F910D
:1003F0005F914F913F912F910F900FBE0F901F90E3
:1004000018951F920F920FB60F9211242F938F936E
:100410009F93EF93FF93E0911A03F0911B03808168
:10042000E0912003F091210382FD1BC09081809117
:1004300023038F5F8F7320912403821741F0E09193
:100440002303F0E0E65FFC4F958F80932303FF9139
:10045000EF919F918F912F910F900FBE0F901F9052
:1004600018958081F4CF789484B5826084BD84B57A
:10047000816084BD85B5826085BD85B5816085BD9F
:1004800080916E00816080936E0010928100809157
:1004900081008260809381008091810081608093DF
:1004A0008100809180008160809380008091B10004
:1004B00084608093B1008091B00081608093B0002F
:1004C00080917A00846080937A0080917A008260C3
:1004D00080937A0080917A00816080937A00809185
:1004E0007A00806880937A001092C100E0911A032C
:1004F000F0911B0382E08083E0911603F0911703D3
:100500001082E0911803F09119038FEC8083109210
:100510002203E0911E03F0911F0386E08083E091A7
:100520001C03F0911D03808180618083E0911C0396
:10053000F0911D03808188608083E0911C03F0911D
:100540001D03808180688083E0911C03F0911D036E
:1005500080818F7D80838CE18AB914B87AE9A72ED7
:1005600075E0B72EC0E0D1E000E010E08AE093E053
:100570000E94E200892B09F441C067EAE62E63E09D
:10058000F62E2FB7F89480919C0590919D05A0912F
:100590009E05B0919F052FBF809312039093130384
:1005A000A0931403B09315038AE093E00E94C00067
:1005B00097FF94C02FB7F89480919C0590919D056A
:1005C000A0919E05B0919F052FBF409112035091BD
:1005D00013036091140370911503841B950BA60BF4
:1005E000B70B40910E0350910F036091100370916F
:1005F000110384179507A607B707B0F2E0E0F1E012
:100600008191882329F122E0E53FF20709F1282FA3
:10061000082E000C330BDF011197A901440F551F61
:10062000440F551F407155278F7E842B8B7F44E0EC
:10063000359527954A95E1F720FB882480F8912C81
:100640009401220F331F220F331F822B8C93D8CF9C
:10065000FE0101900020E9F7AF014150514060E0F8
:1006600071E08AE093E00E94840042E050E066E09E
:1006700073E08AE093E00E9484000E945F002B01F7
:100680003C0188E8C82E83E1D82EE12CF12C0E9491
:100690005F006419750986099709683E73408105F2
:1006A0009105A8F3F1E0CF1AD108E108F10828EE8E
:1006B000420E23E0521E611C711CC114D104E104DE
:1006C000F10429F70115110509F450CF0E94EE003D
:1006D000882309F44BCF0E94000048CFF701819393
:1006E0007F01AE16BF0609F04CCF88CFEAE0F3E0F9
:1006F0001382128288EE93E0A0E0B0E084839583B9
:10070000A683B78388EF92E09183808385EC90E0A5
:100710009587848784EC90E09787868780EC90E0CB
:10072000918B808B81EC90E0938B828B82EC90E0BC
:10073000958B848B86EC90E0978B868B118E128E36
:10074000138E148E0895EE0FFF1F0590F491E02D87
:100750000994F894FFCF7075746F20656C207175E3
:1007600065206C65652100000000000000000000AD
:100770000000000000000000000000000000000079
:100780000000000000000000000000000000000069
:100790000000000000000000000000000000000059
:1007A0000000000000000000000000000000000049
:1007B0000000000000000000000000000000000039
:1007C0000000000000000000000000000000000029
:1007D0000000000000000000000000000000000019
:1007E0000000000000000000000000000000000009
:1007F00000000000000000000000000000000000F9
:1008000000000000000000000000000000000000E8
:1008100000000000000000000000000000000000D8
:1008200000000000000000000000000000000000C8
:1008300000000000000000000000000000000000B8
:1008400000000000000000000000000000000000A8
:100850000000000000000000000000000000000098
:100860000000000000000000000000000000000088
:100870000000000000000000000000000000000078
:100880000000000000000000000000000000000068
:100890000000000000000000000000000000000058
:1008A0000000000000000000000000000000000048
:1008B0000000000000000000000000000000000038
:1008C0000000000000000000000000000000000028
:1008D0000000000000000000000000000000000018
:1008E0000000000000000000000000000000000008
:1008F00000000000000000000000000000000000F8
:1009000000000000000000000000000000000000E7
:1009100000000000000000000000000000000000D7
:1009200000000000000000000000000000000000C7
:1009300000000000000000000000000000000000B7
:100940000000000000000000000000000000240182
:100950008400B1007101E200C000D4000D0A000063
:107E0000112484B714BE81FFF0D085E080938100F7
:107E100082E08093C00088E18093C10086E0809377
:107E2000C20080E18093C4008EE0C9D0259A86E02C
:107E300020E33CEF91E0309385002093840096BBD3
:107E4000B09BFECF1D9AA8958150A9F7CC24DD24C4
:107E500088248394B5E0AB2EA1E19A2EF3E0BF2EE7
:107E6000A2D0813461F49FD0082FAFD0023811F036
:107E7000013811F484E001C083E08DD089C08234E0
:107E800011F484E103C0853419F485E0A6D080C0E4
:107E9000853579F488D0E82EFF2485D0082F10E0AE
:107EA000102F00270E291F29000F111F8ED06801E7
:107EB0006FC0863521F484E090D080E0DECF843638
:107EC00009F040C070D06FD0082F6DD080E0C81688
:107ED00080E7D80618F4F601B7BEE895C0E0D1E017
:107EE00062D089930C17E1F7F0E0CF16F0E7DF06D8
:107EF00018F0F601B7BEE89568D007B600FCFDCFD4
:107F0000A601A0E0B1E02C9130E011968C91119780
:107F100090E0982F8827822B932B1296FA010C0160
:107F200087BEE89511244E5F5F4FF1E0A038BF0790
:107F300051F7F601A7BEE89507B600FCFDCF97BE46
:107F4000E89526C08437B1F42ED02DD0F82E2BD052
:107F50003CD0F601EF2C8F010F5F1F4F84911BD097
:107F6000EA94F801C1F70894C11CD11CFA94CF0C13
:107F7000D11C0EC0853739F428D08EE10CD085E9AC
:107F80000AD08FE07ACF813511F488E018D01DD067
:107F900080E101D065CF982F8091C00085FFFCCF94
:107FA0009093C60008958091C00087FFFCCF809118
:107FB000C00084FD01C0A8958091C6000895E0E648
:107FC000F0E098E1908380830895EDDF803219F02E
:107FD00088E0F5DFFFCF84E1DECF1F93182FE3DFCA
:107FE0001150E9F7F2DF1F91089580E0E8DFEE27F6
:047FF000FF270994CA
:027FFE00040479
:00000001FF
